{
  "_format": "hh-sol-artifact-1",
  "contractName": "Escrow",
  "sourceName": "contracts/Escrow.sol",
  "abi": [
    {
      "inputs": [
        {
          "internalType": "address",
          "name": "_factory",
          "type": "address"
        }
      ],
      "stateMutability": "nonpayable",
      "type": "constructor"
    },
    {
      "anonymous": false,
      "inputs": [
        {
          "indexed": false,
          "internalType": "address",
          "name": "",
          "type": "address"
        },
        {
          "indexed": false,
          "internalType": "address",
          "name": "",
          "type": "address"
        },
        {
          "indexed": false,
          "internalType": "uint256",
          "name": "",
          "type": "uint256"
        }
      ],
      "name": "Approved",
      "type": "event"
    },
    {
      "inputs": [],
      "name": "approved",
      "outputs": [],
      "stateMutability": "nonpayable",
      "type": "function"
    },
    {
      "inputs": [],
      "name": "arbiter",
      "outputs": [
        {
          "internalType": "address",
          "name": "",
          "type": "address"
        }
      ],
      "stateMutability": "view",
      "type": "function"
    },
    {
      "inputs": [],
      "name": "beneficiary",
      "outputs": [
        {
          "internalType": "address",
          "name": "",
          "type": "address"
        }
      ],
      "stateMutability": "view",
      "type": "function"
    },
    {
      "inputs": [],
      "name": "escrowFactory",
      "outputs": [
        {
          "internalType": "contract EscrowFactoryInterface",
          "name": "",
          "type": "address"
        }
      ],
      "stateMutability": "view",
      "type": "function"
    },
    {
      "inputs": [],
      "name": "getAllEscrow",
      "outputs": [
        {
          "components": [
            {
              "internalType": "address",
              "name": "escrow",
              "type": "address"
            },
            {
              "internalType": "address",
              "name": "owner",
              "type": "address"
            },
            {
              "internalType": "uint256",
              "name": "id",
              "type": "uint256"
            }
          ],
          "internalType": "struct Escrows[]",
          "name": "",
          "type": "tuple[]"
        }
      ],
      "stateMutability": "view",
      "type": "function"
    },
    {
      "inputs": [
        {
          "internalType": "uint256",
          "name": "_id",
          "type": "uint256"
        }
      ],
      "name": "getEscrowById",
      "outputs": [
        {
          "components": [
            {
              "internalType": "address",
              "name": "escrow",
              "type": "address"
            },
            {
              "internalType": "address",
              "name": "owner",
              "type": "address"
            },
            {
              "internalType": "uint256",
              "name": "id",
              "type": "uint256"
            }
          ],
          "internalType": "struct Escrows",
          "name": "",
          "type": "tuple"
        }
      ],
      "stateMutability": "view",
      "type": "function"
    },
    {
      "inputs": [
        {
          "internalType": "address",
          "name": "_arbiter",
          "type": "address"
        },
        {
          "internalType": "address",
          "name": "_beneficiary",
          "type": "address"
        }
      ],
      "name": "initEscrow",
      "outputs": [],
      "stateMutability": "payable",
      "type": "function"
    },
    {
      "inputs": [],
      "name": "owner",
      "outputs": [
        {
          "internalType": "address",
          "name": "",
          "type": "address"
        }
      ],
      "stateMutability": "view",
      "type": "function"
    },
    {
      "inputs": [
        {
          "internalType": "address",
          "name": "_contractAddress",
          "type": "address"
        }
      ],
      "name": "setFactoryAddress",
      "outputs": [],
      "stateMutability": "nonpayable",
      "type": "function"
    }
  ],
  "bytecode": "0x60806040523480156200001157600080fd5b5060405162001357380380620013578339818101604052810190620000379190620001dc565b33600360006101000a81548173ffffffffffffffffffffffffffffffffffffffff021916908373ffffffffffffffffffffffffffffffffffffffff160217905550806000806101000a81548173ffffffffffffffffffffffffffffffffffffffff021916908373ffffffffffffffffffffffffffffffffffffffff16021790555060008054906101000a900473ffffffffffffffffffffffffffffffffffffffff1673ffffffffffffffffffffffffffffffffffffffff16635cfc339330600360009054906101000a900473ffffffffffffffffffffffffffffffffffffffff166040518363ffffffff1660e01b8152600401620001379291906200021f565b600060405180830381600087803b1580156200015257600080fd5b505af115801562000167573d6000803e3d6000fd5b50505050506200024c565b600080fd5b600073ffffffffffffffffffffffffffffffffffffffff82169050919050565b6000620001a48262000177565b9050919050565b620001b68162000197565b8114620001c257600080fd5b50565b600081519050620001d681620001ab565b92915050565b600060208284031215620001f557620001f462000172565b5b60006200020584828501620001c5565b91505092915050565b620002198162000197565b82525050565b60006040820190506200023660008301856200020e565b6200024560208301846200020e565b9392505050565b6110fb806200025c6000396000f3fe6080604052600436106100865760003560e01c806383c17c551161005957806383c17c55146101355780638da5cb5b1461015e5780639c9ecc8414610189578063bdd1daaa146101a5578063fe25e00a146101d057610086565b806319d40b081461008b5780632036a7d5146100a257806320ca0418146100cd57806338af3eed1461010a575b600080fd5b34801561009757600080fd5b506100a06101fb565b005b3480156100ae57600080fd5b506100b76103e1565b6040516100c49190610986565b60405180910390f35b3480156100d957600080fd5b506100f460048036038101906100ef91906109e8565b61047c565b6040516101019190610a57565b60405180910390f35b34801561011657600080fd5b5061011f610525565b60405161012c9190610a81565b60405180910390f35b34801561014157600080fd5b5061015c60048036038101906101579190610ac8565b61054b565b005b34801561016a57600080fd5b5061017361061e565b6040516101809190610a81565b60405180910390f35b6101a3600480360381019061019e9190610af5565b610644565b005b3480156101b157600080fd5b506101ba6107a4565b6040516101c79190610b94565b60405180910390f35b3480156101dc57600080fd5b506101e56107c8565b6040516101f29190610a81565b60405180910390f35b600160009054906101000a900473ffffffffffffffffffffffffffffffffffffffff1673ffffffffffffffffffffffffffffffffffffffff163373ffffffffffffffffffffffffffffffffffffffff161461028b576040517f08c379a000000000000000000000000000000000000000000000000000000000815260040161028290610c0c565b60405180910390fd5b60004790506000600260009054906101000a900473ffffffffffffffffffffffffffffffffffffffff1673ffffffffffffffffffffffffffffffffffffffff16826040516102d890610c5d565b60006040518083038185875af1925050503d8060008114610315576040519150601f19603f3d011682016040523d82523d6000602084013e61031a565b606091505b505090508061035e576040517f08c379a000000000000000000000000000000000000000000000000000000000815260040161035590610ce4565b60405180910390fd5b7f80da462ebfbe41cfc9bc015e7a9a3c7a2a73dbccede72d8ceb583606c27f8f90600160009054906101000a900473ffffffffffffffffffffffffffffffffffffffff16600260009054906101000a900473ffffffffffffffffffffffffffffffffffffffff16846040516103d593929190610d13565b60405180910390a15050565b606060008054906101000a900473ffffffffffffffffffffffffffffffffffffffff1673ffffffffffffffffffffffffffffffffffffffff1663df28c4086040518163ffffffff1660e01b8152600401600060405180830381865afa15801561044e573d6000803e3d6000fd5b505050506040513d6000823e3d601f19601f820116820180604052508101906104779190610f36565b905090565b6104846107ee565b60008054906101000a900473ffffffffffffffffffffffffffffffffffffffff1673ffffffffffffffffffffffffffffffffffffffff166320ca0418836040518263ffffffff1660e01b81526004016104dd9190610f7f565b606060405180830381865afa1580156104fa573d6000803e3d6000fd5b505050506040513d601f19601f8201168201806040525081019061051e9190610f9a565b9050919050565b600260009054906101000a900473ffffffffffffffffffffffffffffffffffffffff1681565b600360009054906101000a900473ffffffffffffffffffffffffffffffffffffffff1673ffffffffffffffffffffffffffffffffffffffff163373ffffffffffffffffffffffffffffffffffffffff16146105db576040517f08c379a00000000000000000000000000000000000000000000000000000000081526004016105d290611013565b60405180910390fd5b806000806101000a81548173ffffffffffffffffffffffffffffffffffffffff021916908373ffffffffffffffffffffffffffffffffffffffff16021790555050565b600360009054906101000a900473ffffffffffffffffffffffffffffffffffffffff1681565b600360009054906101000a900473ffffffffffffffffffffffffffffffffffffffff1673ffffffffffffffffffffffffffffffffffffffff163373ffffffffffffffffffffffffffffffffffffffff16146106d4576040517f08c379a00000000000000000000000000000000000000000000000000000000081526004016106cb90611013565b60405180910390fd5b662386f26fc1000034101561071e576040517f08c379a0000000000000000000000000000000000000000000000000000000008152600401610715906110a5565b60405180910390fd5b80600260006101000a81548173ffffffffffffffffffffffffffffffffffffffff021916908373ffffffffffffffffffffffffffffffffffffffff16021790555081600160006101000a81548173ffffffffffffffffffffffffffffffffffffffff021916908373ffffffffffffffffffffffffffffffffffffffff1602179055505050565b60008054906101000a900473ffffffffffffffffffffffffffffffffffffffff1681565b600160009054906101000a900473ffffffffffffffffffffffffffffffffffffffff1681565b6040518060600160405280600073ffffffffffffffffffffffffffffffffffffffff168152602001600073ffffffffffffffffffffffffffffffffffffffff168152602001600081525090565b600081519050919050565b600082825260208201905092915050565b6000819050602082019050919050565b600073ffffffffffffffffffffffffffffffffffffffff82169050919050565b600061089282610867565b9050919050565b6108a281610887565b82525050565b6000819050919050565b6108bb816108a8565b82525050565b6060820160008201516108d76000850182610899565b5060208201516108ea6020850182610899565b5060408201516108fd60408501826108b2565b50505050565b600061090f83836108c1565b60608301905092915050565b6000602082019050919050565b60006109338261083b565b61093d8185610846565b935061094883610857565b8060005b838110156109795781516109608882610903565b975061096b8361091b565b92505060018101905061094c565b5085935050505092915050565b600060208201905081810360008301526109a08184610928565b905092915050565b6000604051905090565b600080fd5b600080fd5b6109c5816108a8565b81146109d057600080fd5b50565b6000813590506109e2816109bc565b92915050565b6000602082840312156109fe576109fd6109b2565b5b6000610a0c848285016109d3565b91505092915050565b606082016000820151610a2b6000850182610899565b506020820151610a3e6020850182610899565b506040820151610a5160408501826108b2565b50505050565b6000606082019050610a6c6000830184610a15565b92915050565b610a7b81610887565b82525050565b6000602082019050610a966000830184610a72565b92915050565b610aa581610887565b8114610ab057600080fd5b50565b600081359050610ac281610a9c565b92915050565b600060208284031215610ade57610add6109b2565b5b6000610aec84828501610ab3565b91505092915050565b60008060408385031215610b0c57610b0b6109b2565b5b6000610b1a85828601610ab3565b9250506020610b2b85828601610ab3565b9150509250929050565b6000819050919050565b6000610b5a610b55610b5084610867565b610b35565b610867565b9050919050565b6000610b6c82610b3f565b9050919050565b6000610b7e82610b61565b9050919050565b610b8e81610b73565b82525050565b6000602082019050610ba96000830184610b85565b92915050565b600082825260208201905092915050565b7f596f75206d757374206265207468652061726269746572000000000000000000600082015250565b6000610bf6601783610baf565b9150610c0182610bc0565b602082019050919050565b60006020820190508181036000830152610c2581610be9565b9050919050565b600081905092915050565b50565b6000610c47600083610c2c565b9150610c5282610c37565b600082019050919050565b6000610c6882610c3a565b9150819050919050565b7f4661696c656420746f2073656e642065746820746f2062656e6566696369617260008201527f7900000000000000000000000000000000000000000000000000000000000000602082015250565b6000610cce602183610baf565b9150610cd982610c72565b604082019050919050565b60006020820190508181036000830152610cfd81610cc1565b9050919050565b610d0d816108a8565b82525050565b6000606082019050610d286000830186610a72565b610d356020830185610a72565b610d426040830184610d04565b949350505050565b600080fd5b6000601f19601f8301169050919050565b7f4e487b7100000000000000000000000000000000000000000000000000000000600052604160045260246000fd5b610d9882610d4f565b810181811067ffffffffffffffff82111715610db757610db6610d60565b5b80604052505050565b6000610dca6109a8565b9050610dd68282610d8f565b919050565b600067ffffffffffffffff821115610df657610df5610d60565b5b602082029050602081019050919050565b600080fd5b600080fd5b600081519050610e2081610a9c565b92915050565b600081519050610e35816109bc565b92915050565b600060608284031215610e5157610e50610e0c565b5b610e5b6060610dc0565b90506000610e6b84828501610e11565b6000830152506020610e7f84828501610e11565b6020830152506040610e9384828501610e26565b60408301525092915050565b6000610eb2610ead84610ddb565b610dc0565b90508083825260208201905060608402830185811115610ed557610ed4610e07565b5b835b81811015610efe5780610eea8882610e3b565b845260208401935050606081019050610ed7565b5050509392505050565b600082601f830112610f1d57610f1c610d4a565b5b8151610f2d848260208601610e9f565b91505092915050565b600060208284031215610f4c57610f4b6109b2565b5b600082015167ffffffffffffffff811115610f6a57610f696109b7565b5b610f7684828501610f08565b91505092915050565b6000602082019050610f946000830184610d04565b92915050565b600060608284031215610fb057610faf6109b2565b5b6000610fbe84828501610e3b565b91505092915050565b7f596f75277265206e6f7420746865206f776e6572000000000000000000000000600082015250565b6000610ffd601483610baf565b915061100882610fc7565b602082019050919050565b6000602082019050818103600083015261102c81610ff0565b9050919050565b7f4d7573742062652067726561746572206f7220657175616c20746f20302e303160008201527f2065746800000000000000000000000000000000000000000000000000000000602082015250565b600061108f602483610baf565b915061109a82611033565b604082019050919050565b600060208201905081810360008301526110be81611082565b905091905056fea2646970667358221220e7280f1df38906093a0827d2bf2bf418de577ba6508a292e007d7f97bb67b7db64736f6c63430008120033",
  "linkReferences": {},
  "deployedLinkReferences": {}
}